9043232624214      2303200400TEST 0000      000000000000000000INMACR        001                                                                                         
05004834323209361252000Z N77025686213213194610005000000000201000000008000682000000008000682Chef Culture Restuarant\\RIYADH   \   SA 594700000     1008N4719910 1 0130320
0501            000000                                                          313056636886   TERMID01000000000000  421400  0   0                           000000000  
0505586213531861029000000008000682          0000 000000000000N                             000000000000000 0000000000000000000000000000N             0000000000000000   
050700001160731E0F0C8682        804EBF7400477C00AFE24835C111A7BF010A000024800003606002000000118500                  06                                                  
05004834323209361252000Z N77025686213213194710005000000000201000000007000682000000007000682Chef Culture Restuarant\\RIYADH   \   SA 594700000     1008N8977390 1 0130320
0501            000000                                                          313056636886   TERMID01000000000000  421400  0   0                           000000000  
0505586213531861029000000007000682          0000 000000000000N                             000000000000000 0000000000000000000000000000N             0000000000000000   
050700001160731E0F0C8682        804EBF7400477C00AFE24835C111A7BF010A000024800003606002000000118500                  06                                                  
910043232624214000000000000000000000000000000004000000000028000000        000000028000000000000000000000000000000000000000000000000000000000000000000000000000000       
920043232624214000000002154989000000000029000004000000000439000000        000000282000000000000000000000000002223800000000000000000000000000000000000000000000000       

This is a base 2 file.
This file is going to issuer so visain typed.